:100000000C946F020C94000E0C94B6020C94B60281
:100010000C94B6020C94B6020C94B6020C94B60280
:100020000C94B6020C94B6020C9498240C946C2593
:100030000C947B1B0C94B6020C94B6020C94B60282
:100040000C94B6020C94B6020C94B6020C94B60250
:100050000C94B6020C94E11B0C94B6020C94B602FC
:100060000C94B6020C94B6020C94B6020C94B60230
:100070000C94B6020C94B6020C94B6020C94B60220
:100080000C94B6020C94B6020C94B6020C94B60210
:100090000C94B6020C94B6020C94B6020C94B60200
:1000A0000C94B6020C94B6020C94B602290014000B
:1000B0001A000800150017002B00040016000700A6
:1000C00009000A00E1001D001B00060019000500E0
:1000D000E000E200AA00A90003512C002A0013004E
:1000E00012000C0018001C00280033000F000E0046
:1000F0000D000B00E500380037003600100011003D
:10010000E4004C000100010002512C002900140001
:1001100052000800150017002B00500051004F003E
:1001200009000A00E1001D001B000600190005007F
:10013000E000E200AA00A90003512C002A001300ED
:1001400012000C0018001C00280033000F000E00E5
:100150000D000B00E50038003700360010001100DC
:10016000E4004C000100010002512C000100AC0031
:10017000AE00AB000100010001000100AA00A900CF
:10018000A800010001003A003B003C003D003E0099
:100190000100440045000100010001004C00010085
:1001A0000100520001000100010001004F00510058
:1001B00050000100010043004200410040003F00A8
:1001C00001000100010001000100010035001E00D6
:1001D0001F00200021002200010001000100010099
:1001E00001000100010049004A004B004E004D0093
:1001F00001000100010001000100010031002700A1
:100200002600250024002300340030002F002E009B
:100210002D000100010001000100010001000100AA
:10022000010001000100010001000100005C01006B
:1002300001000100010001000100010001000100B6
:1002400001000100010001000100010001000100A6
:100250000100010001000100010001000100010096
:100260000100010001000100010001000100015135
:10027000085D010001000100010001000100010012
:100280000100010001000100010001000001010165
:100290000101010101010202020202020202020343
:1002A0000303030303030304040404040404050513
:1002B00005050506060606060707070707080808D6
:1002C00008090909090A0A0A0B0B0B0C0C0C0D0D85
:1002D0000D0E0E0E0F0F0F1010111111121213131D
:1002E0001414151516161717181819191A1A1B1B96
:1002F0001C1D1D1E1E1F20202122222324242526F2
:1003000026272829292A2B2C2D2D2E2F3031323229
:10031000333435363738393A3B3C3D3E3F40414235
:10032000434445464748494A4C4D4E4F505153541B
:10033000555658595A5B5D5E5F61626465666869CF
:100340006B6C6D6F7072737577787A7B7D7E80824F
:10035000838587888A8C8E8F91939596989A9C9E98
:10036000A0A2A3A5A7A9ABADAFB1B3B5B7BABCBEA8
:10037000C0C2C4C6C9CBCDCFD1D4D6D8DBDDDFE275
:10038000E4E7E9EBEEF0F3F5F8FAFDFF04033000E3
:1003900000001C034C006500740073002000530033
:1003A00070006C00690074002000760032000000CC
:1003B000160357006F006F00740070006100740036
:1003C0006F006F00740000000403090409023B0081
:1003D000020100A0FA090400000103010100092143
:1003E000110100012240000705810308000A0904E9
:1003F0000100010300000009211101000122850014
:100400000705820320000A1201100100000008ED18
:10041000FE603001000102030105010902A101850E
:10042000020901A1000509190129051500250195F9
:1004300005750181029501750381010501093009E6
:10044000311581257F9502750881060938158125AA
:100450007F950175088106050C0A38021581257FF4
:10046000950175088106C0C005010980A1018503B9
:100470001A81002A830016010026030095017510D9
:100480008100C0050C0901A10185041A01002A9C04
:1004900002160100269C02950175108100C005011D
:1004A0000906A101050719E029E7150025019508AE
:1004B000750181029501750881010507190029FF61
:1004C000150026FF00950675088100050819012909
:1004D00005950575019102950175039101C01124DF
:1004E0001FBECFEFDAE0DEBFCDBF04B603FE27C0EC
:1004F00080912D0290912E02A0912F02B091300296
:100500008730904BA740B04BD1F410922D0210923F
:100510002E0210922F021092300214BE84B7877FF1
:1005200084BF0FB6F894A89580916000886180938D
:100530006000109260000FBEE0E0F8E3099511E062
:10054000A0E0B1E0E4EAFFE402C005900D92A83318
:10055000B107D9F722E0A8E3B1E001C01D92AD32A6
:10056000B207E1F70E94C9210C9494270C94000073
:100570000C94CF06E5EFF1E08BE781838AE5828377
:1005800080E7838308950F9304E023E042E00E9414
:100590003D030F910895813021E5920789F088305D
:1005A0009D45C9F4FB0182818823B1F040E76AE5EB
:1005B0008BE70E946D0A80E00E942A0380E0089584
:1005C000FB018281882341F040E065E48FEF0E94C7
:1005D000BA0981E0F1CF81E0089581E008950C949B
:1005E000CB021F93CF93DF9300D000D00F92CDB7F3
:1005F000DEB749835A836B8320915C0189819A819C
:1006000021111BC06623A9F00E94E018182F682F43
:1006100089819A810E94891869817A81812F0F903E
:100620000F900F900F900F90DF91CF911F910C942E
:1006300022040E94B718182FEFCF0E94E01869819A
:100640007A81EDCFFC014081518162817381848187
:100650000C94F102CF93DF93C1E0D0E002C0CC0F45
:10066000DD1F8A95E2F78C2F0E94371ABE0190E0B9
:1006700080E0DF91CF910C948D178F929F92AF9273
:10068000BF92CF92DF92EF92FF920F931F936B0175
:100690007C0181E090E0A0E0B0E04C015D0104C08D
:1006A000880C991CAA1CBB1C4A95D2F7B501A40161
:1006B0004C015D0104C0880C991CAA1CBB1C2A9526
:1006C000D2F7482959296A297B2904C0880F991F24
:1006D000AA1FBB1F0A95D2F78A019B010C211D217D
:1006E0002E213F21041715072607370789F48C2987
:1006F0009D29AE29BF29BC01CD011F910F91FF900B
:10070000EF90DF90CF90BF90AF909F908F90089523
:1007100080959095A095B0958C219D21AE21BF210B
:10072000EACF0E94241A811102C00E94C61A0C94BA
:10073000B8020C94D10608950C949B0381E00895AF
:100740000C949E03CF93C82F0E949C038C2FCF91B3
:100750000C94A00308950E94CB130E94AA032FEFCC
:1007600084E39CE0215080409040E1F700C000000D
:1007700087E797E790930108809300080C94051C85
:100780000F931F93CF93DF93EC010E9422038C0100
:10079000BE010E94EF028823A9F1BE01C8010E9498
:1007A000EE0B882379F1BE01C8010E942F0C88232B
:1007B00049F1BE01C8010E94F40A882319F18A8117
:1007C000882341F001158CE51807D1F00E3D8CE52A
:1007D0001807F1F006311C4551F50E9475199A81F0
:1007E0009923D9F08A7A91E009F490E09093380146
:1007F000811111C089E20E9450190E94C11902C0E2
:100800000E94AB0380E0DF91CF911F910F9108957B
:100810000E94C61AF7CF85E3EECF8091380181118F
:1008200004C089E20E945719E8CF85E3FBCFCE01CF
:10083000DF91CF911F910F910C94ED0290E080E039
:1008400008950895972F70E026E0929F600D711D26
:100850001124FB0190E3899FE00DF11D1124EE0F9F
:10086000FF1FE455FF4F859194910895FC01EE0F11
:10087000FF1FE457FD4F859194910895CF93DF9327
:100880000E9422040E94F505EC01811520E59207E3
:1008900008F042C0811530E4930708F014C1883E87
:1008A000910528F5803E910508F0A0C0883A910591
:1008B00088F4853A910508F08FC08130910509F4DC
:1008C00095C0009709F492C0049708F08FC0D0E05B
:1008D000C0E08CC08F3B910508F48CC0805C91090E
:1008E000C03CD105A0F30E943604EC017FC0811505
:1008F000904250F4C11581E0D80708F077C0C03F9E
:10090000D10528F3D06572C0C11590E3D90708F06E
:10091000D0C0CE019F70E7CF811525E5920758F52D
:10092000811534E5930708F0FDC0811542E5940771
:1009300050F4C11581E5D80708F4C8C0DC2FCC27D6
:10094000C16FD06A53C0982F969596959E012370DB
:100950003327C115D34508F0D6C0C1E0D0E002C0AE
:10096000CC0FDD1F2A95E2F720E2929FC0011124EF
:10097000C82BD92BC6C0C11589E5D807A8F4C11565
:1009800098E5D90708F0D3C0C11526E5D20708F0CD
:100990009ECF8C2F0E948C06C82FD0E0DC2FCC2756
:1009A000CC27DF71D06222C0C1153AE5D30708F425
:1009B000C3C0CE0190568115904208F088CF8D2F8C
:1009C0008F710E948C0690E0982F882788279F714E
:1009D0009C012C2BE901E6CF853A910509F4BAC0B8
:1009E000863A910509F0B9C0C2E8D0E4CE01DF91A2
:1009F000CF910895883A910509F4B2C0893A9105DA
:100A000009F4B1C08A3A910509F4B0C08B3A910556
:100A100009F4AFC08C3A910509F4AEC08B3B910547
:100A200009F4ADC08C3B910509F4ACC08D3A910539
:100A300009F4ABC0803B910509F4AAC08E3A910538
:100A400009F4A9C08F3A910509F4A8C0813B91052A
:100A500009F4A7C0823B910509F4A6C0833B910528
:100A600009F4A5C0843B910509F4A4C0853B910518
:100A700009F4A3C0863B910509F4A2C0873B910508
:100A800009F4A1C0883B910509F4A0C0893B9105F8
:100A900009F49FC08D3B910509F49EC08E3B9105E2
:100AA00009F49DC08A3B910509F49CC0C0E0D4E4E0
:100AB0009DCFCE019927D3FF03C0EC01D86C96CF10
:100AC000EC01D06C93CFDF70D06A90CFCE01E4E020
:100AD00096958795EA95E1F783702C2F26952695B4
:100AE000237090E2299F90011124382B8C2F837062
:100AF000C1E0D0E002C0CC0FDD1F8A95E2F7C22B27
:100B0000D32BDC6873CFC1E0D0E002C0CC0FDD1F77
:100B10002A95E2F730E2939FC0011124C82BD92B0C
:100B2000DA6864CFD82FCC27C46FD06A5FCFDC2FB0
:100B3000CC27C06FD06A5ACF8C2F8F700E948C0642
:100B400034E0D695C7953A95E1F7CF709C2FEC012C
:100B5000D0694CCFC1E8D0E449CFC3E8D0E446CF58
:100B6000C2EED4E443CFC9EED4E440CFCAEED4E41D
:100B70003DCFC5EBD4E43ACFC6EBD4E437CFC3EBDB
:100B8000D4E434CFC4EBD4E431CFC7EBD4E42ECFDC
:100B9000CCECD4E42BCFCDECD4E428CFC3E8D5E41F
:100BA00025CFCAE8D5E422CFC2E9D5E41FCFC4E9F6
:100BB000D5E41CCFC1E2D6E419CFC3E2D6E416CF08
:100BC000C4E2D6E413CFC5E2D6E410CFC6E2D6E441
:100BD0000DCFC7E2D6E40ACFCFE6D4E407CFC0E713
:100BE000D4E404CFCAE2D6E401CF82389105B1F152
:100BF000B0F48133910509F475C048F48932910548
:100C000009F469C08A32910509F473C008958533E7
:100C1000910509F459C08933910501F10895833E86
:100C20009105A9F138F4803E9105F9F0823E9105D5
:100C300049F10895863E9105A9F1873E9105C9F1D4
:100C4000843E910519F520911F0221FF1FC080915C
:100C50001E0284FD14C087EE90E0089520911E02CC
:100C60002370A1F080EE90E0089520911E0220FDF7
:100C700047C030911F0230FF09C024FF44C090E0FC
:100C800080E004C020911E0222FDF7CF089520913C
:100C90001E0222FD3BC030911F0230FDE3CF24FF36
:100CA000F5CFEDCF20911E0223FFF0CF24FDE7CF3B
:100CB000D2CF20911E0223FD2CC030911F0231FFA4
:100CC000EECF84EE90E0089520911E0225FFDECF46
:100CD00089E290E0089520911E0225FFD7CF85E399
:100CE00090E0089520911E0226FFD0CF8AE290E086
:100CF000089520911E0226FFC9CF81E390E0089558
:100D000089E390E0089583EE90E0089582EE90E00C
:100D1000089586EE90E0089590911E0292FF06C01D
:100D2000282F28712830F9F4877F846093FF06C04C
:100D3000282F28712831F1F4877E846120911F02C9
:100D400020FF06C0382F38713830D9F4877F816092
:100D500021FF06C0282F28712831D1F4877E8161B8
:100D600094FD877E0895282F24712430F9F68B7F17
:100D70008860DCCF282F2471243101F78B7E8861B5
:100D8000DDCF382F3171313019F78E7F8860E0CF99
:100D9000282F2171213121F78E7E8861E1CF0895BE
:100DA00008950C94D006E82FF0E0E551FE4F8081C5
:100DB0000895089508950E943C0880910001809153
:100DC000000194E0811190E09093F40184E0891B8C
:100DD0008093F301A4E2B1E061E070E08D91E82F2F
:100DE000E295EF70F0E041A18F709B0101C0220FEE
:100DF0008A95EAF7922F9095942391A382A1822B52
:100E000082A381E0A832B80749F7AEE1B1E061E022
:100E100070E08D91E82FE295EF70F0E041A18F70C6
:100E20009B0101C0220F8A95EAF7922F9095942397
:100E300091A382A1822B82A381E0A432B80749F753
:100E4000E3EEF1E0ABEEB1E08BEE91E011921D929A
:100E50008E179F07D9F784E00E94E7070C9491034F
:100E60000E941E088823F1F08091F30190E08551E3
:100E70009E4F0E945308811112C0809139018F5FEB
:100E800080933901863048F0E091F301F0E0E551BC
:100E9000FE4F10821182128213820C9499031092D9
:100EA0003901FBCF8091F40190E085519E4F0E9463
:100EB0006C080C94DA066F927F928F929F92AF9299
:100EC000BF92CF92DF92EF92FF920F931F93CF9337
:100ED000DF9323EE31E044E2E42E41E0F42E712C66
:100EE000CC24C394D12CE90179919E01DE011E929C
:100EF000F70181917F01E82FE295EF70F0E091A179
:100F00008F70860101C0000F8A95EAF7892F802B28
:100F100081A382A1602E6094862182A380EA8A95B3
:100F2000F1F79EE1A92E91E0B92E50E040E0E501F5
:100F300069915E01862E82948FE08822912CE401D3
:100F400088A190E06F7002C0959587956A95E2F749
:100F5000812C80FD06C04601042E01C0880C0A9435
:100F6000EAF78C91882A8C924F5F5F4F463051058B
:100F7000F1F681A1862181A382A1082B02A381E041
:100F80009C91971301C080E0782AD1E0273E3D076D
:100F900009F0A9CF6091F40170E065517E4F272DD3
:100FA00044E083EE91E00E94E8070E943007872D1D
:100FB000DF91CF911F910F91FF90EF90DF90CF9035
:100FC000BF90AF909F908F907F906F9008950895FD
:100FD000FF920F931F93CF93DF93F82E092F162FB5
:100FE000D72FC42F222349F081E080933C010E9437
:100FF000AB1B90933B0180933A0180913C01882385
:10100000A1F080913A0190913B010E94B71B069795
:1010100060F0EF2DF02FA12FBD2FCE0FDF2FD11DB0
:10102000EC17FD0741F410923C01DF91CF911F9125
:101030000F91FF90089581918D93F2CF80913D01A2
:10104000811111C08091D80080618093D8008AE11D
:101050008A95F1F700C09091D900892F817090FF97
:1010600082E080933D0181E090913D01913009F053
:1010700080E008950C941E080E943A0880930001B5
:101080000E941E0881110C9447080C944D0861E0E1
:1010900070E081E091E00C94B10D61E070E081E0DE
:1010A00091E00C94B80DCF93DF93D82FC92F0E94F5
:1010B000520E009779F4ED2FFC2FDC01A15CBE4F9E
:1010C0002C912193019684309105B9F781E0DF914D
:1010D000CF91089580E0FBCF30E020E0FC0141910A
:1010E000CF01F901E15CFE4F40832F5F3F4F243079
:1010F0003105A1F70895AF92BF92CF92DF92FF9290
:101100000F931F93CF93DF93362F472FE82FF0E0F5
:10111000E457FD4F71110DC06491762F862FDF913A
:10112000CF911F910F91FF90DF90CF90BF90AF9024
:101130000895C72FD0E02491F22E022F10E056E040
:10114000659FC0011124EFEFF0E0BF010E941E2750
:10115000832F90E0880F991F35E5369FD001379F88
:10116000B00D11248A1B9B0B982F990F980F6F01BC
:10117000CC1ADD0AC09ED001C19EB00DD09EB00D2C
:1011800011248B2F949FA0011124452F55276F0107
:10119000C41AD50AC09EA001C19E500DD09E500D0C
:1011A00011245F01A91AB108AC9E6001AD9ED00C5C
:1011B000BC9ED00C1124CD2CDD24EC19FD09E09F40
:1011C000E001E19FD00DF09FD00D1124ED2F623092
:1011D0007105A1F048F46115710569F06130710580
:1011E00089F0EB2F852F07C06430710571F088F00E
:1011F00066307105B1F76E2F722F91CFE22F2B2F32
:101200008D2FF9CFE22F252FF6CFEB2F822F2D2F09
:10121000F2CF2B2F8F2DE52FEECFCF93DF93762FAD
:10122000E901682F842F0E947B08798368838A8371
:10123000DF91CF9108958091F501982F9E7F39F429
:101240008091F501817082608093F501089584306A
:10125000B8F7089588E090E00C945427CF92DF927D
:10126000EF92FF926B017C010E941B09B701A6015E
:1012700088E090E0FF90EF90DF90CF900C94722781
:10128000E5EFF1E083E0808311828FEF8283838337
:10129000148260817181828193810C942E098091E6
:1012A000F901833018F48F5F8093F9016091F501A3
:1012B0007091F6018091F7019091F8010C942E093C
:1012C0008091F901882319F081508093F901609190
:1012D000F5017091F6018091F7019091F8010C945D
:1012E0002E0960910A0170E08091F50180FF0AC02B
:1012F0008091440123E0829FC001112486509E4FBB
:101300000C947E0B809143019091090123E0829F10
:10131000F0011124E650FE4F891750F71182108218
:1013200012828F5F3396F8CFE5EFF1E080818E7FF8
:10133000808360817181828193810E942E092FEFC9
:1013400080E792E0215080409040E1F700C000002B
:101350000C947109E5EFF1E080818E7F80832FEF9F
:1013600080E792E0215080409040E1F700C000000B
:101370000C9471099091F50190FF14C09091430174
:101380002091090133E0939FF0011124E650FE4FB4
:10139000921710F00C9471098183608342839F5FE0
:1013A0003396F6CF0895EF92FF920F931F93CF934A
:1013B000DF9300D00F92CDB7DEB7F82E062F142F93
:1013C000E22E8091F50180FF28C0E82FE695F0E03D
:1013D000E45DFE4F9081909346018E7F823059F4F8
:1013E0009E012F5F3F4F8F2D0E940D094B81698118
:1013F0008A810E94BA09F092F6010093F7011093D6
:10140000F801EE2051F06091F5017091F6018091A4
:10141000F7019091F8010E942E090F900F900F9004
:10142000DF91CF911F910F91FF90EF900895E5EF1D
:10143000F1E09181282F4381628188E0890F0C942B
:10144000D30981E00C94170AE5EFF1E09181282F90
:101450004381628188EF890F0C94D30981E00C9459
:10146000240AE5EFF1E0628121E1620F08F46FEFF9
:10147000282F438181810C94D30981E00C94310A97
:10148000E5EFF1E0628121E1621B08F460E0282FC2
:10149000438181810C94D30981E00C94400AE5EFEB
:1014A000F1E0438121E1420F08F44FEF282F6281E0
:1014B00081810C94D30981E00C944F0AE5EFF1E0AF
:1014C000438121E1421B08F440E0282F62818181A1
:1014D0000C94D30981E00C945E0A20E00C94D309AB
:1014E0008091F50180FF18C0817082608093F501C2
:1014F000662351F06091F5017091F6018091F7013A
:101500009091F8010E942E094091F8016091F70135
:101510008091F6010C946D0A0895682F81E00C9477
:10152000700A81E00C948D0A682F9091F5019695D0
:101530008FEF890F09F481E00C94700A81E00C941C
:10154000940A61E00C94700AE5EFF1E0808181601B
:10155000808386950C94A10A8091F50180FD0C94FE
:1015600094090C94A40A60E00C94700A80914501DF
:1015700081112CC00E94241A811104C00E94C61A35
:101580000E9440090E942A096093F5017093F601B8
:101590008093F7019093F8016E7F61F40E944009F7
:1015A0000E942A096093F5017093F6018093F70178
:1015B0009093F8010E941B098091F50180FF03C000
:1015C00086950E94B30A81E0809345010895E5EF76
:1015D000F1E080818160808386950C94B30AFA01E2
:1015E000811101C0FB0109941F93CF93DF93EC019C
:1015F000FB011281111110C00E9475198272FE0147
:10160000E25CFC45E431F10508F043C0EA56F84DD0
:101610000C9446270E94AC0A812FDF91CF911F9135
:1016200008954EE95AE061E97AE00E94EF0AF4CFAA
:1016300041E95AE06EE97AE0F8CF4EE25AE061E221
:101640007AE0F3CF41E25AE06EE27AE0EECF4CE48A
:101650005AE06DE37AE0E9CF4DE35AE06CE47AE0DA
:10166000E4CF4AE65AE06BE57AE0DFCF4BE55AE09B
:101670006AE67AE0DACF40E659E06FE479E0D5CF68
:101680004FE459E060E679E0D0CF81E00E94A10A02
:10169000C3CF11E0C1CF3BB1242F209523233BB111
:1016A000432B3FB7F894680F791F8617970711F4FB
:1016B0003FBF0895FC015191CF01E8E04BB9000014
:1016C00000C057FF2BB9550F000000C000C000C07C
:1016D0002BB900C0EA9591F7E8CF2AB1242B2AB99B
:1016E0009B01220F331F620F731F0E944B0B87EC6D
:1016F00090E00197F1F700C00000089548E00C94D5
:101700006D0B0F931F93CF93DF93C62FD42F022F10
:10171000FC0182818823C9F060934A010E94AB1BBF
:10172000909349018093480180E28C0F883008F043
:1017300050C0C77081E001C0880FCA95EAF7DF91F9
:10174000CF911F910F910C94311110914A011613F2
:1017500035C080914801909149010E94B71B883C97
:10176000910560F5C0E2CD0F1D17B9F080E2810F41
:10177000883040F4177081E001C0880F1A95EAF7AD
:101780000E943811C83048F481E09D2F977001C045
:10179000880F9A95EAF70E943111802F0E941E113E
:1017A000C830B8F4D77081E001C0880FDA95EAF745
:1017B000DF91CF911F910F910C94381180E28C0F23
:1017C000883038F4C77081E001C0880FCA95EAF705
:1017D000EFCFDF91CF911F910F9108959C01CB0125
:1017E000233F4CE5340731F190F4283DFCE53F07F9
:1017F000E9F0293D4CE5340769F1273D3C4579F492
:1018000026E241EE61EE0E94810B80E00895253FC3
:10181000FCE53F07B9F090F0263F3C45B9F0FC01EC
:1018200082818823D1F010924A01089527E245EE83
:1018300065EEE9CF26E241EE60EEE5CF27E245EE28
:1018400064EEE1CF26E241EE62EEDDCF27E245EE27
:1018500066EED9CF28E241E0EBCF81E00895CF9347
:10186000DF93EC01FB018281882309F419C1C230A6
:10187000FCE5DF07C0F1C6319CE5D90730F09E01D9
:101880002A5F3C452930310570F50E943C1A90933F
:101890001F0280931E02C031ECE5DE0709F4CFC0C1
:1018A00008F05BC0C8308CE5D80709F4B6C088F5ED
:1018B000C430ECE5DE0709F4A8C0C0F4C2308CE502
:1018C000D80709F49CC080911E028260C330DC45B9
:1018D00009F498C080911E0290911F020E944A1A3A
:1018E0000E94CB1380E0DF91CF91089580911E027A
:1018F0008061C630ECE5DE0709F484C080911E02E9
:101900008860C730DC4508F47DC080911E0280628B
:1019100079C0CC308CE5D80709F489C070F4809187
:101920001E028C60CA30ECE5DE0709F46BC008F4D7
:1019300078C080911E028E7F65C0CE308CE5D807BE
:1019400009F479C080911E028B7FCF30DC4508F40A
:1019500059C080911E028F7E55C0CB3FECE5DE075B
:1019600009F457C030F5C3318CE5D80709F46FC0CE
:1019700078F4C131ECE5DE0709F465C0C231DC451D
:1019800009F0A8CF0E94CB1380911E028F773AC036
:10199000C5318CE5D80709F462C008F476C080919F
:1019A0001F028160CA3FDC4509F094CF80931F027B
:1019B00091CFCF3FFCE5DF0709F44DC088F480915B
:1019C0001F028D7FCD3F9CE5D90781F380911F02D7
:1019D0008E7FCE3FDC4550F380911F028360E6CFBF
:1019E000C130FDE5DF0709F459C008F444C080E0C8
:1019F000C230DD4509F06ECF0E94C81A6BCF8091CE
:101A00001E02816080931E0265CF80911E02846059
:101A1000F9CF80911F028260C9CF80911E0280643D
:101A2000F1CF0E94CB1380911E028068EBCF809192
:101A30001E028D7FE7CF80911E02877FE3CF8091CA
:101A40001E028F7DDFCF80911E028F7BDBCF8091C6
:101A50001E02837FD7CF80911F028C7FA7CF8091FA
:101A60001E0282FB992790F921E0922790FB82F9D0
:101A700090FB83F9C7CF80911F02982F90959170AA
:101A80008E7F892B90FB81F991CF0E94CB1390918F
:101A90001E02892F97FB87F98058B4CF81E0ACCF25
:101AA00081E021CF8EE1489B02C08150E1F7489B45
:101AB000FECF0895589880E28A95F1F7589A0895D4
:101AC000FC013BE03A95F1F798E020E080E031E05E
:101AD00040E14A95F1F7880F489B02C081602327B7
:101AE00042E04A95F1F7000040E14A95F1F7915044
:101AF00079F790E19A95F1F799B132E03A95F1F7DB
:101B0000000040E14A95F1F7917092272081920FF1
:101B100090830895EF92FF920F931F93CF93DF93DB
:101B20000F92CDB7DEB719828C017C01E60EF11C55
:101B30000E151F0561F481E09981911180E00F90ED
:101B4000DF91CF911F910F91FF90EF9008950E9428
:101B5000520DCE0101960E94600DF80181938F0114
:101B6000E7CF90934C0180934B01509A589A089577
:101B700090934C0180934B015098589AE89AE9E66B
:101B8000F0E080818C7F808308956150770B91E035
:101B900001C0990F6A95EAF720E031E0911108C081
:101BA000222391F0589A80E28A95F1F75898089587
:101BB000492F482339F0589A232740E24A95F1F7F4
:101BC0009695ECCF5898F9CF5898EDCFFF920F9398
:101BD0001F93CF93DF93EC018C01060F111DC017EB
:101BE000D10731F4DF91CF911F910F91FF900895AC
:101BF000F9900E945A0D68E08F2D0E94C50DEFCF1D
:101C00001F920F920FB60F9211242F933F934F9371
:101C10005F936F937F938F939F93AF93BF93CF9374
:101C2000DF93EF93FF935898509AC0914B01D09156
:101C30004C016D81662321F08E819F810E94E60D0B
:101C40000E945A0D80E18A95F1F758985098589A59
:101C500080E18A95F1F76A81662309F18B819C8185
:101C60000E948A0DE881F981882311F088E001C083
:101C700082E080830E94520DFF91EF91DF91CF911E
:101C8000BF91AF919F918F917F916F915F914F9194
:101C90003F912F910F900FBE0F901F901895E881E4
:101CA000F981E4CFCF93DF93C0914B01D0914C01E8
:101CB000F894509A589885E08A95F1F7000050986A
:101CC000589A80E28A95F1F7489B0CC0509A589A2E
:101CD000E881F98181E08083789481E090E0DF9170
:101CE000CF9108956D81662381F08E819F810E943E
:101CF0008A0D81110AC0509A589AE881F98182E0D0
:101D00008083789482E090E0EACF0E94520D80E2D6
:101D10008A95F1F75898509A80E18A95F1F76A818F
:101D2000662321F08B819C810E94E60D0E945A0D52
:101D3000E881F9811082789490E080E0D0CF909390
:101D40005201809351010895E0915101F0915201A7
:101D5000309721F00190F081E02D099480E0089502
:101D6000E0915101F0915201309721F00280F3810E
:101D7000E02D09940895E0915101F09152013097BE
:101D800039F022E0DC012C930480F581E02D0994E8
:101D9000089520914F01309150012817390771F0B3
:101DA0009093500180934F01E0915101F0915201C5
:101DB000309721F00680F781E02D09940895209155
:101DC0004D0130914E012817390771F090934E0163
:101DD00080934D01E0915101F0915201309721F033
:101DE0000084F185E02D0994089585B7806885BF4A
:101DF00085B7806885BF0895089508950C94FC0EFA
:101E00000C94BA020E94F50E0E94FD0E0C94FE0E78
:101E10000E94A21B0E94DB060E94161C0E94B60AAA
:101E20000C94000FAF92BF92CF92DF92EF92FF928D
:101E30000F931F93CF93DF93CDB7DEB72A970FB6DB
:101E4000F894DEBF0FBECDBF0E945B070E941E0844
:101E5000882309F45FC084E5A82E81E0B82E10E045
:101E600000E0C02E802F0E94D306E82EF501D1900D
:101E70005F01D81609F448C08091C80181FD0E9415
:101E8000D90680E0FF24F394DE249D2D9F21B9F133
:101E90008E83CF82EF2081E009F480E088870E9462
:101EA000AB1B8160782F9A8789874E815F81688517
:101EB0008A850E94AC0FF801EC5AFE4F8081F8260B
:101EC000F0820E94A31D0E94A40E909153018917D5
:101ED00091F10E94A40E809353012A960FB6F894B4
:101EE000DEBF0FBECDBFDF91CF911F910F91FF904D
:101EF000EF90DF90CF90BF90AF900C94A2038F5FD4
:101F0000FF0C863009F0C1CF0F5F1F4F083011055D
:101F100009F0A7CF8FEF89838A831B820E94AB1BB6
:101F20008160782F9D838C8349815A816B818D815B
:101F30000E94AC0FC6CF2A960FB6F894DEBF0FBE34
:101F4000CDBFDF91CF911F910F91FF90EF90DF9068
:101F5000CF90BF90AF900895CF93DF93CDB7DEB70A
:101F60002B970FB6F894DEBF0FBECDBF4F835887B7
:101F700069877A878B871E821D8285E0FE013796EE
:101F8000DE01119601900D928A95E1F749815A81FF
:101F90006B817C818D819E812B960FB6F894DEBF7C
:101FA0000FBECDBFDF91CF910C946B16FC018081E9
:101FB00091810C942219CF93C82F882309F4E6C08D
:101FC0008238C1F40E94A40E81FDE0C089E30E9422
:101FD00050190E94C1192FEF81EE94E021508040EA
:101FE0009040E1F700C0000089E30E945719CF91AB
:101FF0000C94C1198338A1F40E94A40E80FDC6C0C0
:1020000083E50E9450190E94C1192FEF81EE94E0E0
:10201000215080409040E1F700C0000083E5E5CF0B
:102020008438A1F40E94A40E82FDB0C087E40E940F
:1020300050190E94C1192FEF81EE94E02150804089
:102040009040E1F700C0000087E4CFCF8CEF8C0F09
:10205000813A48F48C2F0E94BE1F811197C08C2FAB
:102060000E945019C4CF80E28C0F883048F4C770AA
:1020700081E001C0880FCA95EAF70E947819B7CFAE
:102080008BE58C0F833068F481E890E0C53A31F03D
:1020900083E890E0C63A11F482E890E0CF910C9486
:1020A000C90E88E58C0F873108F068C082EE90E099
:1020B000C83A09F460C089EE90E0C93A09F45BC0FF
:1020C0008AEE90E0CA3A09F456C085EB90E0CB3A2C
:1020D00009F451C086EB90E0CC3A09F44CC083EB94
:1020E00090E0CB3B09F447C084EB90E0CC3B09F493
:1020F00042C087EB90E0CD3AF1F18CEC90E0C03B30
:10210000D1F18DEC90E0CE3AB1F183E891E0CF3A95
:1021100091F18AE891E0C13B71F182E991E0C23B23
:1021200051F184E991E0C33B31F181E292E0C43B9B
:1021300011F183E292E0C53BF1F084E292E0C63B0C
:10214000D1F085E292E0C73BB1F086E292E0C83B75
:1021500091F087E292E0C93B71F08FE690E0CD3BD1
:1021600051F080E790E0CE3B31F090E080E0CA3B58
:1021700011F48AE292E0CF910C94DF0EC03F30F070
:102180008C2F0E94B11CCF910C94981DCF91089573
:10219000882309F452C0823871F40E94A40E81FF92
:1021A0004CC089E30E9450190E94C11989E30E9422
:1021B00057190C94C119833859F40E94A40E80FF5A
:1021C0003CC083E50E9450190E94C11983E5EFCFFE
:1021D000843859F40E94A40E82FF2FC087E40E9425
:1021E00050190E94C11987E4E2CF9CEF980F913AF1
:1021F000F0F290E2980F983050F4877091E001C0AF
:10220000990F8A95EAF7892F0E947E19D2CF9BE514
:10221000980F933020F490E080E00C94C90E98E57C
:10222000980F973120F490E080E00C94DF0E803F0F
:1022300020F00E94191D0C94981D0895CF93C82F6B
:102240000E94DB0FC93349F42FEF87EE93E0215052
:1022500080409040E1F700C000008C2FCF910C949B
:10226000C810882321F00E9478190C94C119089590
:10227000882321F00E947E190C94C1190895BF9201
:10228000CF92DF92EF92FF920F931F93CF93DF9342
:102290006C01D62FC72FFC01058102950F701281AA
:1022A00011110E9495190E946E19E82E882371F071
:1022B0001123B1F080E28D0F883090F082E00E940F
:1022C0000C1A0E946E1991E0E82EE926BC2EB294F9
:1022D0009FE0B922EB2DF0E0E655F84D0C9446272F
:1022E000E12CF4CF0C2F0F70C07F11F00295007F0E
:1022F0001123A9F0002359F080E28D0F883010F0EF
:10230000D11109C0802F0E9478190E94C1198D2F08
:102310000E94DB0F14C0802F0E948819F6CF8D2FEA
:102320000E94C810002359F080E28D0F883010F011
:10233000D1112CC0802F0E947E190E94C1192B2D13
:102340002850330B2430310520F40E94A40E0E9443
:10235000A203EE2009F4D5C10E946A1980FDD1C103
:10236000F60112820E9464190E94ED17C6010E94B4
:102370008B130E946419DF91CF911F910F91FF90F1
:10238000EF90DF90CF90BF900C940E18802F0E949A
:102390008E19D3CFFC2FFF70FF2EC07FC03219F0F3
:1023A000F29480EFF822DD2369F0D13049F1112356
:1023B00091F1002351F1F601858180FFA8CF8F7044
:1023C000858323C0112381F0011106C00E94A81942
:1023D0008F290E943111B3CF0130C1F70E94A81993
:1023E0008F290E94AE19ABCF011106C00E94B71908
:1023F0008F2D0E943811A3CF013009F4A0CFF6CF62
:10240000112329F0063008F09ACF8F2DE2CF053046
:1024100008F095CFEDCF002359F3D93349F4FFEFFE
:1024200027EE33E0F15020403040E1F700C00000DB
:102430008D2F0E94C81083CF8C2F86958695837030
:1024400069F0813009F07BCF8D2F9C2F9370111193
:1024500002C090E080E00E94DF0E71CF8D2F9C2F94
:102460009370111102C090E080E00E94C90E67CF06
:10247000112309F1D53F99F0D63FB9F0D43F49F483
:1024800080911802909119028160909319028093B3
:1024900018028D2F0E94B11C0E94981D50CF809170
:1024A0001802909119028260F0CF809118029091E9
:1024B00019028460EACFD53F89F0D63FA9F0D43F16
:1024C00049F480911802909119028E7F909319021D
:1024D000809318028D2F0E94191DDECF8091180263
:1024E000909119028D7FF2CF80911802909119027C
:1024F0008B7FECCF8C2F837009F041C011111FCF5F
:102500004D2F429546954770440F440F0D2F0F7085
:1025100010E030E020E0042E04C0000F111F221F45
:10252000331F0A94D2F760E070E0CB01D4FF0FC0F4
:102530006FE070E080E090E004C0660F771F881FB6
:10254000991F4A95D2F76095709580959095C6959C
:10255000C695C370602B712B822B932BC23049F030
:1025600058F4C13019F00E94A117E9CE0E948F17CC
:10257000E6CE0E94B317E3CE0E948D17E0CE86957B
:10258000112311F08C2F8170882309F4D8CE4D2FA0
:10259000429546954770440F440F0D2F0F7010E081
:1025A00030E020E0042E04C0000F111F221F331F53
:1025B0000A94D2F760E070E0CB01D4FF0FC06FE067
:1025C00070E080E090E004C0660F771F881F991FBD
:1025D0004A95D2F76095709580959095C695C69569
:1025E000C370602B712B822B932BC23049F058F4AF
:1025F000C13019F00E946418A2CE0E9452189FCEDA
:102600000E9476189CCE0E94C71799CECF701123D6
:1026100029F08C2F0E94ED178D2FDBCE8D2F0E947D
:1026200038118C2F0E940E188ACED23F89F160F4A7
:10263000D03FC9F0D13F29F1112309F442C0011163
:1026400066CE8C2F8F7121C0D33F39F1D43FA1F7D3
:10265000112369F1CF718C2F0E94ED1763E08C2F4D
:102660000E94F7196CCE112341F0053008F067CEB7
:102670008C2F8F710E94311862CE063008F05FCE29
:10268000F7CF8C2F8F71112369F20E94ED1757CE6F
:102690008C2F8F711123C9F3C5CF112329F08C2FF3
:1026A0008F710E94D8174BCE0E94D31748CE81E07D
:1026B0000E940C1A023008F442CE82E00E940C1AEA
:1026C0003ECE002359F0D93309F0B2CE8FEF97EE0A
:1026D000E3E081509040E040E1F7A8CE8C2F8F716D
:1026E000A1CF4C2F4F706D2FC6010E941E040E9477
:1026F000051725CE4C2F4F706D2FC6010E94210467
:102700001ECEDF91CF911F910F91FF90EF90DF9040
:10271000CF90BF9008950F931F93CF93DF93EC0159
:102720008B819C81892B29F08881998189238F3F16
:1027300029F4DF91CF911F910F910895CE010E944E
:10274000C0038823B1F3688179818A810E942C19A2
:102750008C010E9488180E948C17B801CE01DF916D
:10276000CF911F910F910C943F110E9495190E94D7
:10277000A5190E94C1190E943A1E0E94981D90E05E
:1027800080E00E94C90E90E080E00C94DF0E0E9471
:102790005E190C94B5130E9485190C94C713E92F88
:1027A000E295EF70E250EE3070F4F0E0E654F84D50
:1027B0000C944627803F19F020F4883E20F481E0F5
:1027C0000895843FE1F380E00895883EC0F3813F9F
:1027D000D1F7F5CF93FB882780F908950E9422193D
:1027E0000C94CF13CF93DF9300D000D00F92CDB7CE
:1027F000DEB70F900F900F900F900F90DF91CF9159
:102800000895CF93DF9300D000D000D0CDB7DEB7CE
:1028100026960FB6F894DEBF0FBECDBFDF91CF91E5
:1028200008951F93CF93DF93C0915D0116E08091CF
:102830005E018C1304C0DF91CF911F910895D0E009
:102840001C9FF0011D9FF00D1124E15AFE4F4081A5
:10285000518162817381848195810E940114219646
:10286000C770E5CF40918F01509190016091910127
:102870007091920180919301909194010C940114B4
:102880001F93CF93DF9380919401807FC1F4809157
:1028900091018823A1F080915D01C0915E0160915A
:1028A0008F01709190014091920150919301D62F28
:1028B000D723DA01A095B09516E0C81304C0DF91C4
:1028C000CF911F91089590E04115510511F0DF3F20
:1028D00031F401968770F1CF2A0F3B1F17C0189F64
:1028E000F001199FF00D1124E15AFE4F21812713A9
:1028F000F0CF20812613EDCF22812111EACF238151
:1029000034812417350740F3241B350B283C31054F
:1029100000F7209194012F7020612093940126E00C
:10292000289FF001299FF00D1124EC59FE4F808162
:102930008F70806180838FE891E00E948B13DF911C
:10294000CF911F910C941114BF92CF92DF92EF920E
:10295000FF920F931F93CF93DF93CDB7DEB76197AD
:102960000FB6F894DEBF0FBECDBF8C0185E0F80135
:10297000DE011D9601900D928A95E1F7D8014C91E8
:1029800011965C9111971296EC901297809192019A
:1029900090919301009709F47FC120918F013091AC
:1029A0009001622F63236F3F09F476C11396CD9097
:1029B000DC90B0909101BB2009F411C1C816D90672
:1029C000D0F1F601E81BF90BCF01FF24F394883C0A
:1029D000910508F0F12C80919401982F907FFF20B1
:1029E00009F4B8C091117FC0FE2C351329C02413FF
:1029F00027C0E11025C08F708061809394010E94F0
:102A000032148FE891E00E948B1380919401D801D9
:102A100015968C938F2D61960FB6F894DEBF0FBE7E
:102A2000CDBFDF91CF911F910F91FF90EF90DF907D
:102A3000CF90BF900895809590958C0D9D1DC5CF2A
:102A4000CD2829F0852F84238F3F09F041C180E0F4
:102A5000B82FB170DB2E80FF3CC080915D012091CA
:102A60005E0136E0821315C04D875E878D859E8599
:102A70000E942219292F22952F702230F0F0243045
:102A800018F59F70F1F0F8019581907FD1F4D12C69
:102A90001EC090E0389FF001399FF00D1124E15ADB
:102AA000FE4F6181651306C06081641303C06281BB
:102AB000E6120FC001968770D5CF9F7011F0882362
:102AC00031F3805E883018F3C8010E948B13FD2C0F
:102AD000A1CFEE2009F49ECF809194018160809374
:102AE0009401F12C97CF351306C0241304C0D801EC
:102AF000EE2009F49AC04D875E878D859E850E94E1
:102B0000EE13882319F1EE2009F1809194018032AF
:102B100070F020918F013091900138872F831986B2
:102B2000DB86CA868C87CE0107960E948B1386E0CF
:102B3000F801AFE8B1E001900D928A95E1F70E94AB
:102B400040140E943214FF24F39464CFC8010E9401
:102B50008B13F9CF911113C07C2DD98AC88A6E2DA1
:102B600089890E94F2138FE891E00E948B1386E01E
:102B7000EFE8F1E0DF011D928A95E9F763C03513B4
:102B800012C0241310C0E1100EC0F8018583C801E3
:102B90000E948B13EFE8F1E086E0DF011D928A9539
:102BA000E9F7FB2C37CF4D875E878D859E850E9488
:102BB000EE13882359F2EE2049F28091940180327D
:102BC00008F4B5CF20918F01309190013A83298389
:102BD0001B82DD82CC828E83CE010196A6CFC816E1
:102BE000D90698F1F601E81BF90BCF01F12C883CCE
:102BF000910508F049C0FE2CEE2009F4A7CF35134B
:102C000032C0241330C08091940180FD23C0982FDE
:102C1000907F01F1D80115968C931597903F39F06C
:102C2000982F907F905F8F70892B15968C93C80199
:102C30000E948B1386E0F801AFE8B1E001900D929D
:102C40008A95E1F70E943214E5CE809590958C0D1F
:102C50009D1DCCCF86E0F801AFE8B1E001900D9268
:102C60008A95E1F7D7CE4D875E878D859E850E9438
:102C7000EE1381115CCF8091940181608093940167
:102C8000C8010E948B13C6CE7C2DD98AC88A6E2DAE
:102C900089890E94F2136BCFEE2009F457CF4D873C
:102CA0005E878D859E850E94EE13F82E882309F499
:102CB0004DCF86E0F801AFE8B1E001900D928A9522
:102CC000E1F78FE891E00E94D60F0E944014BACF3E
:102CD00081E08E25BDCE1F93CF93DF93CDB7DEB7B6
:102CE0002C970FB6F894DEBF0FBECDBF4F83588729
:102CF00069877A878B879C87CE0107960E94A414E8
:102D0000882369F08A859B85892B39F04F81588506
:102D1000842F85238F3F09F071C016E05FC086E0E5
:102D2000FE013796DE01119601900D928A95E1F72A
:102D30008A859B85892B89F388859F8189238F3F8D
:102D400061F320915E0130E0C901019687709927F7
:102D500040915D014817190671F40E94CB1310923F
:102D60005E0110925D0186E0EFE8F1E0DF011D9267
:102D70008A95E9F7D2CF96E0929FD001939FB00D4C
:102D80001124A15ABE4FFE01319601900D929A95E1
:102D9000E1F780935E010E941114BFCF819FC001B3
:102DA0001124815A9E4F0E94A4148823E9F0E091D7
:102DB0005D011E9FF0011124E15AFE4F40815181B7
:102DC00062817381848195810E94011480915D01EB
:102DD00090E001968770992780935D0180915D0155
:102DE00090915E018913DACF2C960FB6F894DEBF6E
:102DF0000FBECDBFDF91CF911F91089569857A8570
:102E00008B859C850E94011488CFEF92FF920F93CF
:102E10001F93CF93DF938C01892B81F0F12CEE244B
:102E2000E394E8012196F8018491843770F48430AA
:102E300008F05FC08130B1F08230A1F1DF91CF9115
:102E40001F910F91FF90EF900895853709F44CC0C2
:102E500008F43DC09CE7980F903780F78F770E9469
:102E6000C81049C00E5F1F4FFE01849190E2980F79
:102E7000983060F48770FE2D01C0FF0F8A95EAF745
:102E80008F2F0E9498190E94C11902C00E94DB0F67
:102E90008F2D815030F2EFE9FFE03197F1F700C05C
:102EA0000000F7CF0E5F1F4FFE01849190E2980F54
:102EB000983050F48770FE2D01C0FF0F8A95EAF715
:102EC0008F2F0E949E19DFCF0E94C810E1CF0E5FA6
:102ED0001F4FFE01C491C150D8F28FE99FE00197C6
:102EE000F1F700C00000F7CF0E5F1F4FFE01F49016
:102EF000CFCF0E94DB0F8E01CBCF08950C947D17AE
:102F00000E947E176093B7017093B8018093B90156
:102F10009093BA010C94B51308950C9480170F93F5
:102F20001F930091B7011091B8012091B901309120
:102F3000BA01602B712B822B932B1F910F910C9454
:102F400080170F931F930091B7011091B801209142
:102F5000B9013091BA0160237123822393231F9119
:102F60000F910C9480170F931F930091B70110914C
:102F7000B8012091B9013091BA01602771278227E9
:102F800093271F910F910C9480170C94C3020E94F9
:102F9000C5176093B3017093B4018093B50190930A
:102FA000B6010C94B51360E070E0CB010C94C71728
:102FB0000F931F9341E050E060E070E08A019B01B5
:102FC00004C0000F111F221F331F8A95D2F7C901B9
:102FD000B8011F910F910C94C7170F931F9341E0F5
:102FE00050E060E070E004C0440F551F661F771F7B
:102FF0008A95D2F78091B3019091B401A091B50167
:10300000B091B6018A019B01082B192B2A2B3B2B6F
:10301000C901B8011F910F910C94C7170F931F930B
:1030200041E050E060E070E004C0440F551F661FAF
:10303000771F8A95D2F7CB01BA016095709580957C
:1030400090950091B3011091B4012091B501309198
:10305000B60160237123822393231F910F910C9457
:10306000C7170F931F9341E050E060E070E004C089
:10307000440F551F661F771F8A95D2F78091B301C1
:103080009091B401A091B501B091B6018A019B0164
:10309000082719272A273B27C901B8011F910F913B
:1030A0000C94C7170F931F930091B3011091B401B3
:1030B0002091B5013091B601602B712B822B932B9F
:1030C0001F910F910C94C7170F931F930091B30199
:1030D0001091B4012091B5013091B60160237123A4
:1030E000822393231F910F910C94C7170F931F9363
:1030F0000091B3011091B4012091B5013091B60156
:1031000060277127822793271F910F910C94C7176F
:103110000895E92FEE0FE90FEE0F8E0F982F97709D
:1031200041E001C0440F9A95EAF786958695869509
:1031300095E0899FF0011124EB56FE4F30E020E02E
:1031400070E05191DF011197CB01022E02C09695DC
:1031500087950A94E2F781708195852784238527D6
:103160008C932F5F3F4F2530310559F70895E92F94
:10317000EE0FE90FEE0F8E0F982F977086958695BC
:10318000869525E0829FF0011124EB56FE4F50E01A
:1031900040E080E0219130E0092E02C0369527956D
:1031A0000A94E2F721703327042E01C0220F0A94FB
:1031B000EAF7822B4F5F5F4F4530510559F708956D
:1031C000BF92CF92DF92EF92FF920F931F93CF9314
:1031D000DF938C01C090B301D090B401E090B501B1
:1031E000F090B6018091B7019091B801A091B9011A
:1031F000B091BA01C82AD92AEA2AFB2ACFE1D0E045
:10320000BC2ED701C6010C2E04C0B695A795979584
:1032100087950A94D2F780FD0EC0219788F7B12CCC
:103220008B2DDF91CF911F910F91FF90EF90DF9049
:10323000CF90BF900895B8018C2F0E943E04019753
:1032400061F3EECFCF93DF93EC010E94E018BE0153
:10325000DF91CF910C943E041F93CF93DF93EB014A
:1032600090915C01992331F0CB01DF91CF911F91B7
:103270000C942219882379F0CB010E94E018182FB2
:10328000682FCE010E948918BE01812FDF91CF9156
:103290001F910C943E04CB010E94B718182FF4CF55
:1032A000682F80910B0190910C010C94061B682FE4
:1032B00080910B0190910C010C94081B80910B01E3
:1032C00090910C010C940A1B8091BB01859585950A
:1032D000859508958091BB01877008959091BB01F9
:1032E000977081E009F480E008958091C701089506
:1032F0009091C701892B8093C70108958095909183
:10330000C70198239093C70108951092C7010895AB
:103310009091C601892B8093C60108958095909164
:10332000C60198239093C60108951092C60108958E
:103330009091C501892B8093C50108958095909146
:10334000C50198239093C50108951092C501089571
:103350008091BC01089508950C94AB199091BC0123
:10336000981721F08093BC010C94AC1908958091BA
:10337000BC01882329F01092BC0180E00C94AC19A8
:103380000895E0910B01F0910C018091C7018083B9
:10339000E0910B01F0910C0180819091C601892B85
:1033A0008083E0910B01F0910C0180819091C50127
:1033B000892B80839091BC01992381F0E0910B01CE
:1033C000F0910C018081892B808380910B01909179
:1033D0000C010E94CD1A81110E94B71980910B0136
:1033E00090910C010C94B00E08950C94F41998E08F
:1033F000899F90011124622B6093BB010E94ED17FD
:103400008091BB018595859585950C94F519109251
:10341000BB0180E00C94F5199091BB018095892344
:103420008093BB01282F277071F4282F082E000CE1
:10343000330B9217130639F08595859585950E9473
:103440000E180C94071A089590E080E00E945A2705
:1034500021E08C3E9E4F09F020E0822F089582E00B
:1034600090E00C944C2783E090E00C944C27682F5C
:1034700083E090E00C946027CF9384E090E00E947A
:103480004C27C82F81E290E00E944C27982F8C2F68
:10349000CF910895CF93C92F682F84E090E00E94C8
:1034A00060276C2F81E290E0CF910C946027AB01F4
:1034B000BC018FE090E00C947227AB01BC0183E16A
:1034C00090E00C94722760E070E0CB010C945D1AE0
:1034D00060E070E0CB010E94571A0C94631A6CEE06
:1034E0007EEF90E080E00E947E2760E082E090E046
:1034F0000E94602760E083E090E00E9460271092C5
:10350000B7011092B8011092B9011092BA0160E0AF
:1035100084E090E00E94602760E081E290E00E94F9
:10352000602760E085E090E00E94602760E086E030
:1035300090E00E9460276FEF87E090E00E94602794
:1035400040E050E0BA0188E090E00E94722760E01D
:103550008DE090E00E94602740E050E0BA0188E1F1
:1035600090E00E94722760E087E190E00E9460276F
:1035700040E050E0BA018CE190E00E94722760E0E8
:1035800080E290E00E9460270C94681A0C946F1AF5
:10359000682F8EE090E00C9460279C012E5F3F4FD7
:1035A000AC01485F5F4F80E02417350709F40895A8
:1035B000F90191919F019923B9F38F5FF5CF9C0198
:1035C000FC0132969FEF80E04191461751F09F3FFA
:1035D00019F4411101C0982F8F5F8630A9F79F3FE2
:1035E00009F40895290F311D97FD3A95F901628379
:1035F0000895FC01329608962191261303C0DF013D
:1036000011971C92E817F907B9F708950C94DF1A7F
:103610000C94F91A029626E0FC0111922A95E9F71A
:103620000895089508950C94121B0E94131B809115
:103630002402843009F437C01092C90188E190E077
:1036400020E40FB6F894A895809360000FBE2093F5
:10365000600080E00E94A2038091CA0181110AC02B
:1036600081E08093CA018091F50181708093CB0144
:103670000E94AA090E94131B83B7817F846083BFC5
:1036800083B7816083BF7894889583B78E7F83BF2B
:103690000FB6F894A89580916000886180936000CF
:1036A000109260000FBE08950895CF930E94111BE1
:1036B0000E945B070E94541BC0E08C2F0E94D3061F
:1036C000811105C0CF5FC830C1F7CF91089581E067
:1036D000FCCF08950C94691B0E94CB130E94A40E8A
:1036E0000E94A2031092CA018091CB0181110E9415
:1036F000E70A0C946A1B1F921FB61F9211248F9326
:103700009F93AF93BF938091C901811113C08091A2
:103710001A0290911B02A0911C02B0911D024196C9
:10372000A11DB11D80931A0290931B02A0931C024D
:10373000B0931D02BF91AF919F918F911F901FBEBB
:103740001F90189582E084BD93E095BD9AEF97BDD8
:1037500080936E0008952FB7F89480911A0290918B
:103760001B02A0911C02B0911D022FBF0895CF92A1
:10377000DF92EF92FF920F931F932FB7F89440912F
:103780001A0250911B0260911C0270911D022FBF02
:103790006A017B01EE24FF248C0130E020E0C0169A
:1037A000D106E206F30650F0481B590BCA011F91DF
:1037B0000F91FF90EF90DF90CF9008954150510905
:1037C000F3CF78941F921FB61F9211248F939F936B
:1037D000AF93BF9380911A0290911B02A0911C029B
:1037E000B0911D020196A11DB11D80931A02909304
:1037F0001B02A0931C02B0931D02BF91AF919F9139
:103800008F911F901FBE1F90189587E797E79093A1
:1038100001088093000888E19AE00FB6F894A89513
:10382000809360000FBE90936000FFCF0E94241A27
:10383000811102C00E94C61A0E942F1A8093C801EB
:103840000E943C1A90931F0280931E020E94331A1A
:10385000682F70E090E080E00C948D178091CF018C
:1038600080FF12C06091100185E0689FB0011124B3
:10387000759567957595679560387105A8F561151B
:103880007105A1F1862F089581FF09C06091100193
:1038900085E0689FB001112475956795EDCF609123
:1038A000100182FD0AC08091CE018823D1F0909151
:1038B0000F0160911001891728F085E0689FB00121
:1038C0001124DACF869FB001112485E0869F9001F4
:1038D000879F300D1124692F70E0C9010E943227A3
:1038E000CBCF65E070E0CECF8FE7089581E00895FB
:1038F0008091CF0180FF0CC060910E0170E0759542
:103900006795759567956115710549F1862F08953D
:1039100081FF06C060910E0170E075956795F3CF49
:1039200060910E0182FD0BC09091CE019923A1F010
:1039300060910D0180910E01961738F0682F70E0AC
:103940006038710500F38FE70895899FC001112445
:1039500070E00E943227F4CF61E070E0D7CF81E0C1
:103960000895803F31F40E942E1C81958093D301ED
:103970000895813F19F40E942E1CF8CF823F31F444
:103980000E942E1C81958093D2010895833F19F4E3
:103990000E942E1CF8CF893F29F40E94781C809346
:1039A000D40108958A3F21F40E94781C8195F7CFB5
:1039B0008B3F31F40E94781C81958093D501089546
:1039C0008C3F19F40E94781CF8CF843F31F4809129
:1039D000D10181608093D1010895853F21F48091C8
:1039E000D1018260F7CF863F21F48091D1018460BC
:1039F000F1CF873F21F48091D1018860EBCF883FE0
:103A000021F48091D1018061E5CF8D3F31F4809127
:103A1000CF0181608093CF0108958E3F21F4809182
:103A2000CF018260F7CF8F3FB9F78091CF018460DB
:103A3000F1CF9091D201803F41F48091D30187FD75
:103A40001092D301992371F00895813F29F4809158
:103A5000D3011816ACF3F6CF823F81F497FFF2CF73
:103A60001092D2018091D3019091D401892B909131
:103A7000D501892B49F71092CE010895833F19F49F
:103A8000191674F3DFCF893F39F48091D4011816E9
:103A9000CCF61092D401D6CF8A3F29F48091D4017C
:103AA00087FFD0CFF6CF8B3F39F48091D50187FFC8
:103AB000C9CF1092D501C6CF8C3F29F48091D50192
:103AC0001816BCF3BFCF843F31F48091D1018E7FB3
:103AD0008093D101B7CF853F21F48091D1018D7FB3
:103AE000F7CF863F21F48091D1018B7FF1CF873FC3
:103AF00021F48091D101877FEBCF883F21F4809121
:103B0000D1018F7EE5CF8D3F31F48091CF018E7F43
:103B10008093CF0197CF8E3F21F48091CF018D7F8D
:103B2000F7CF8F3F09F08ECF8091CF018B7FF0CF01
:103B300080ED91E00E94BB0E0E94AB1B9093CD01E3
:103B40008093CC0108951F93CF93DF938091CC0194
:103B50009091CD010E94B71BAC019091CE012091B4
:103B6000110130E0911106C0209112018AE0289FD6
:103B7000900111244217530778F02091D201C0918F
:103B8000D301D091D4011091D501211109C08C2FFE
:103B90008D2B812B09F06AC0DF91CF911F91089581
:103BA0009F3F19F09F5F9093CE01121624F40E945C
:103BB0002E1C8093D2018091D20187FF05C00E9404
:103BC0002E1C81958093D2011C1624F40E942E1C79
:103BD0008093D3018091D30187FF05C00E942E1CE2
:103BE00081958093D3013091D2013323A1F02091AC
:103BF000D301222381F045EB3403C0011124992322
:103C000069F19093D20145EB2403900111243323F1
:103C100049F13093D3011D1624F40E94781C80933F
:103C2000D4018091D40187FF05C00E94781C819542
:103C30008093D401111624F40E94781C8093D5013E
:103C40008091D50187FF05C00E94781C81958093E3
:103C5000D501DF91CF911F910C94981D81E0809345
:103C6000D201D1CF81E08093D301D5CF9F3F09F01E
:103C700099CFAACF86E0E0EDF1E0DF011D928A95B1
:103C8000E9F71092CE011092CF010895833081F1AF
:103C900028F4813059F08230D1F00895853009F44C
:103CA00049C0B8F1863009F456C0089580911201D8
:103CB000482F460F5527551F4F3F510524F4680FD5
:103CC0006093120108958FEF8093120108958091FF
:103CD0001101482F460F5527551F4F3F510524F41A
:103CE000680F6093110108958FEF8093110108957B
:103CF00080911001482F460F5527551F4F3F510502
:103D000024F4680F6093100108958FEF80931001E1
:103D1000089580910F01482F460F5527551F4F3F9B
:103D2000510524F4680F60930F0108958FEF80937D
:103D30000F01089580910E01482F460F5527551FFA
:103D40004F3F510524F4680F60930E0108958FEFE3
:103D500080930E01089580910D01482F460F55273D
:103D6000551F4F3F510524F4680F60930D010895CE
:103D70008FEF80930D010895833011F128F4813085
:103D800049F0823091F00895853081F120F186303C
:103D9000C1F1089580911201681720F4861B809369
:103DA000120108951092120108958091110168176F
:103DB00020F4861B8093110108951092110108953B
:103DC00080911001681720F4861B809310010895DC
:103DD00010921001089580910F01681720F4861B3E
:103DE00080930F01089510920F01089580910E01A4
:103DF000681720F4861B80930E01089510920E011F
:103E0000089580910D01681720F4861B80930D01A1
:103E1000089510920D0108950F931F9341E050E013
:103E200060E070E08A019B0104C0000F111F221F97
:103E3000331F8A95D2F7C901B8010E948D171F91CF
:103E40000F910C94CB138B3109F46EC040F58B307D
:103E500071F078F4863009F450C020F4853059F1BF
:103E600080E00895873009F451C08830C9F781E0B7
:103E70000895803109F466C068F48E3089F7909116
:103E8000C801892F8B7F92FF84608093C80182FDD7
:103E900055C0EDCF863159F3893149F3E1CF8A32EC
:103EA00049F1B8F4873211F120F48E31C8F28D5106
:103EB0001EC08932A9F60E94CB132FEF83ED90E349
:103EC000215080409040E1F700C000000E94051C96
:103ED000CECF833440F48A3308F03FC0853331F0CD
:103EE000883329F2BDCF833409F0BACF80E00E9435
:103EF0000C1FBDCF0E94C61ABACF8091C801807F27
:103F00008093C80181E08093D70108959091C80102
:103F1000892F8E7F90FF81608093C80180FDA7CF9D
:103F2000817F8093C801A3CF9091C801892F8D7F95
:103F300091FF82608093C80181FF99CF8091C80171
:103F40008160EFCF9091C801892F877F93FF8860B0
:103F50008093C80183FDF2CF8ACF8953C8CF80E018
:103F600008950C94AF1F8E518A3030F4E82FF0E0A2
:103F7000E25DFE4F8081089580E00895CF93C82FC1
:103F80008091D7018130B9F0882331F08230A1F1DE
:103F90001092D70180E00DC00E9475198232D1F7CE
:103FA0008C2F0E94AF1F81111BC08C2F0E94231FDA
:103FB0008170CF9108950E947519823289F38C2FF8
:103FC0000E94B11F81110AC0C43199F060F4CB3056
:103FD00029F0C03169F782E08093D70181E0E8CF12
:103FE00081E090E0E5CFC93221F0C833B9F380E039
:103FF000DFCF1092D701FBCFC93219F188F4C43159
:1040000001F120F4C73081F181E0D3CF82EE8C0F33
:104010008630D0F78C2F0E94B31F8093D601F4CF47
:10402000CE3401F140F46AE0CB3471F78091D601CF
:104030000E94461EE9CFC13579F061E0C235B1F387
:10404000E3CF8091D601882319F01092D601DCCFFE
:1040500081E08093D701ADCF61E08091D6010E94CD
:10406000BC1ED2CF6AE0F9CF8EE18093120182E3C9
:10407000809311018AE08093100184E180930F0105
:1040800088E080930E0188E280930D01BDCF80917E
:10409000E0010895CF93DF9300D00F92CDB7DEB744
:1040A00090912402943019F589837B836A8382E09E
:1040B0008093E9008FEF9091E800815095FD06C054
:1040C00095ED9A95F1F700008111F5CF8091E80008
:1040D00085FF0DC050E040E063E070E0CE01019646
:1040E0000E948D228091E8008E778093E8000F90E7
:1040F0000F900F90DF91CF910895CF93DF93EC0154
:104100000E947022823011F0843031F4BE0184E0CC
:10411000DF91CF910C944A20DF91CF910895BC019B
:104120006058710983E00C944A20CF93DF93EC012F
:104130000E947022823011F08430F9F482E0809382
:10414000E9008FEF9091E800815095FD06C095ED54
:104150009A95F1F700008111F5CF8091E80085FF75
:104160000CC050E040E066E070E0CE010E948D227D
:104170008091E8008E778093E800DF91CF910895D9
:10418000CF93DF93EC010E947022823011F08430D3
:1041900039F581E08093E9008FEF9091E80081503C
:1041A00095FD06C095ED9A95F1F700008111F5CFC8
:1041B0008091E80085FF14C050E040E068E070E0C6
:1041C000CE010E948D228091E8008E778093E800D6
:1041D00088E0FE01A8EDB1E001900D928A95E1F72B
:1041E000DF91CF91089580912302811109C00E942F
:1041F0001D240E947A248091E20084608093E20072
:104200000895109223020895089508950C946C1B4C
:1042100042E061EC81E00E94992342E261EC82E09D
:104220000C94992380912602833009F45FC030F406
:104230008130C1F1823009F49BC008958A3009F4BD
:1042400087C08B3009F46DC0893009F04EC0809171
:104250002502813209F049C08091290290912A02F9
:10426000029708F042C08091E800877F8093E800C1
:104270008091E80082FF35C09091F3008091F200B8
:10428000029729F48091F1008B7F813021F4809195
:10429000F1008093E0018091E8008B778093E80043
:1042A0000C94CD2380912502813AF9F48091E800A5
:1042B000877F8093E8008091290290912A02892BC0
:1042C00061F468E088ED91E070E00E94DC2280916A
:1042D000E8008B778093E800089560E090E080E04C
:1042E000F3CF809124028111C3CF089580912502DC
:1042F000813AD9F78091290290912A02892BA9F756
:104300008091E800877F8093E8008091E80080FF3B
:10431000FCCF80911D018093F1008091E8008E77A1
:10432000BDCF80912502813201F7809129029091C1
:104330002A02892BD1F68091E800877F8093E800DC
:104340000E94CD238091270280931D010C94CB13F2
:1043500080912502813249F68091E800877F809321
:10436000E8000E94CD23809128028093E101089506
:1043700080912502813A09F0B8CF8091E800877FCB
:104380008093E8008091E80080FFFCCF8091E101FC
:10439000C2CF84B7877F84BF0FB6F894A895809169
:1043A0006000886180936000109260000FBE80E81A
:1043B00090E00FB6F89480936100909361000FBE77
:1043C0000E94020F0E941D240E947A248091E20024
:1043D00084608093E20078940E9403270E94080F73
:1043E00083E191E00E949F0E80912402853019F0B4
:1043F0000E94120FF9CF0E94151B80912202882380
:1044000099F30E94551B882379F30E947722ECCF01
:104410000C940A22292F33272330310519F168F42F
:104420002130310509F44AC02230310509F44BC06E
:1044300090E080E030E020E028C02132310579F1C1
:1044400022323105A9F780E490E02EE934E06115CD
:104450007105D9F085E890E029E134E0613071051B
:10446000A1F0E6CF99278130910599F0009741F0AE
:104470008230910589F00397D9F6ECE8F3E002C0A9
:10448000E8ECF3E0849190E09F01FA01318320830E
:104490000895E0EBF3E0F6CFE2E9F3E0F3CF89E053
:1044A00090E02EED33E06115710579F389E090E03D
:1044B00027EF33E06130710541F3BACF82E190E03C
:1044C00027E034E0E2CF8BE390E02CEC33E0DDCF6B
:1044D00080912402843011F482E0089581E00895EF
:1044E0008091E201811102C00C946822089580E15C
:1044F00089BD82E189BD09B400FEFDCF8091D8005D
:104500008F7D8093D8008091E00082608093E000EE
:104510008091E00081FDFCCF0895AF92BF92CF92D1
:10452000DF92FF920F931F93CF93DF936C01EB0108
:104530008A010E94EC23F82E811123C00115110578
:1045400039F0F80180819181C81BD90BC80ED91EA2
:10455000B12CA12C2097A9F08091E80085FD22C004
:104560008091E8008E778093E80001151105A1F095
:10457000F80180819181A80EB91EB182A08285E0E8
:10458000F82E8F2DDF91CF911F910F91FF90DF902B
:10459000CF90BF90AF9008950E94EC238823D1F272
:1045A000F82EEFCFF60181916F018093F1002197F2
:1045B000FFEFAF1ABF0ACECFFC0180912B02909182
:1045C0002C0286179707A0F06115710529F49091C8
:1045D000E8009E779093E80090E06115710551F432
:1045E000911108C08091E80082FF34C080E00895F6
:1045F000BC01F2CF809124028823C1F18530C1F142
:104600008091E80083FD30C08091E80082FDEACF10
:104610008091E80080FFE1CF8091F3002091F200CB
:10462000382F6115710519F02830310558F091E0E7
:104630002830310509F090E02091E8002E77209392
:10464000E800CBCF81918093F100615071092F5F19
:104650003F4FE7CF80912402882341F0853041F01D
:104660008091E80083FFBECF81E0089582E0089545
:1046700083E00895FC0180912B0290912C02861713
:104680009707A0F06115710529F48091E8008E77F5
:104690008093E80090E06115710551F4911108C014
:1046A0008091E80082FF35C080E00895BC01F2CF20
:1046B000809124028823C9F18530C9F18091E800F6
:1046C00083FD31C08091E80082FDEACF8091E8004F
:1046D00080FFE1CF8091F3002091F200382F611527
:1046E000710519F02830310558F091E02830310576
:1046F00009F090E08091E8008E778093E800CBCFBE
:1047000084918093F1003196615071092F5F3F4F82
:10471000E6CF80912402882341F0853041F08091DA
:10472000E80083FFBDCF81E0089582E0089583E033
:104730000895982F973028F08F708093E90081E0DA
:1047400008959093E900242F762F50E0981731F0C8
:104750007091EC002091ED005091F00021FD02C01D
:104760009F5FE8CF3091EB003E7F3093EB003091BC
:10477000ED003D7F3093ED003091EB0031603093E0
:10478000EB007093EC002093ED005093F00020912B
:10479000EE0027FDE5CF80E008958091250287FF98
:1047A00013C08091E80082FF06C08091E8008B77FB
:1047B0008093E80004C0809124028111F2CF089513
:1047C000809124028823D9F38091E80080FFF8CFFC
:1047D0008091E8008E77ECCF2091E4003091E500E5
:1047E00095E6A9012091EC00822F817020FF06C080
:1047F0008091E80080FF06C080E008952091E800E5
:1048000022FD1AC080912402882389F0853089F026
:104810008091EB0085FD0FC02091E4003091E50010
:1048200042175307F9F29150E1F684E0089582E0CF
:10483000089583E0089581E008950E948B240E94EA
:104840009324E0EEF0E0808181608083E8EDF0E089
:1048500080818F77808319BCA7EDB0E08C918E7F2B
:104860008C9380818F7E80831092230208950F9312
:104870001F93CF93DF930E948B240E949324C8ED53
:10488000D0E088818F778883888180688883888159
:104890008F7D888319BC10922402109220021092FE
:1048A00022021092210200EE10E0F80180818B7F3D
:1048B000808388818160888342E060E080E00E949C
:1048C0009923E1EEF0E080818E7F8083E2EEF0E0DC
:1048D000808181608083808188608083F80180810D
:1048E0008E7F8083888180618883DF91CF911F9143
:1048F0000F910895E8EDF0E080818F7E8083E7EDF1
:10490000F0E080818160808384E082BF81E08093D9
:1049100023020C943724E8EDF0E080818E7F8083C1
:104920001092E20008951092DA001092E1000895CA
:104930001F920F920FB60F9211242F933F934F9314
:104940005F936F937F938F939F93AF93BF93EF93F7
:10495000FF938091E10082FF0BC08091E20082FF13
:1049600007C08091E1008B7F8093E1000E940227C5
:104970008091DA0080FF19C08091D80080FF15C0B7
:104980008091DA008E7F8093DA008091D90080FFD9
:1049900096C080E189BD82E189BD09B400FEFDCFEA
:1049A00081E0809324020E94F3208091E10080FF47
:1049B00019C08091E20080FF15C08091E2008E7FD7
:1049C0008093E2008091E20080618093E200809118
:1049D000D80080628093D80019BC85E080932402BF
:1049E0000E9405218091E10084FF2BC08091E200AC
:1049F00084FF27C080E189BD82E189BD89B5982FF8
:104A0000917080FFFBCF8091D8008F7D8093D8007C
:104A10008091E1008F7E8093E1008091E2008F7EA3
:104A20008093E2008091E20081608093E2008091B7
:104A30002002882309F449C084E0809324020E9464
:104A400006218091E10083FF29C08091E20083FF6D
:104A500025C08091E100877F8093E10082E0809310
:104A60002402109220028091E1008E7F8093E10069
:104A70008091E2008E7F8093E2008091E20080616D
:104A80008093E20042E060E080E00E949923809100
:104A9000F00088608093F0000E940421FF91EF9164
:104AA000BF91AF919F918F917F916F915F914F9146
:104AB0003F912F910F900FBE0F901F90189519BC2A
:104AC000109224020E94012170CF8091E30087FDA3
:104AD00093E090932402B3CF1F920F920FB60F92E0
:104AE00011242F933F934F935F936F937F938F93F3
:104AF0009F93AF93BF93CF93DF93EF93FF93D091A7
:104B0000E900DF708091EC00C82FC17080FDC0E823
:104B10001092E9008091F000877F8093F0007894F4
:104B20000E94B0251092E9008091F0008860809387
:104B3000F000CD2BCF70C093E900FF91EF91DF9192
:104B4000CF91BF91AF919F918F917F916F915F9125
:104B50004F913F912F910F900FBE0F901F9018957E
:104B60001F93CF93DF93CDB7DEB7AA970FB6F89414
:104B7000DEBF0FBECDBF85E292E02091F100FC01C7
:104B80002193CF01F2E08D329F07B9F70E941221E5
:104B90008091E80083FF1EC180912502909126023A
:104BA0009A3008F017C1E92FF0E0E853F84D0C9463
:104BB0004627803899F0823809F00CC1809129028B
:104BC0008F70873008F006C18093E9008091EB0078
:104BD00085FB882780F91092E90006C080912102A8
:104BE00090912202911182609091E800977F9093BA
:104BF000E8008093F1001092F1008091E8008E7738
:104C0000E5C0882309F4D3C0823009F0E3C0809165
:104C100027028111D6C0809129028F702FEF280FB3
:104C2000263008F0D7C08093E9002091EB0020FFE8
:104C3000C8C0933031F48091EB0080628093EB0028
:104C4000C0C09091EB0090619093EB0021E030E0C8
:104C500001C0220F8A95EAF72093EA001092EA0039
:104C60008091EB008860EACF8111B4C010912702D7
:104C70001F778091E3008078812B8093E3008091FF
:104C8000E800877F8093E8000E94CD238091E800B0
:104C900080FFFCCF8091E30080688093E30082E096
:104CA000111183E08093240295C08058823008F06F
:104CB00091C080912702909128028C3D23E09207B9
:104CC000A1F583E08A838AE289834FB7F894DE01F5
:104CD000139620E03EE051E2E32FF0E050935700BE
:104CE000E49120FF03C0E295EF703F5FEF708E2FDD
:104CF00090E0EA30C0F0C7968D939D932F5F2431EA
:104D000059F74FBF8091E800877F8093E8006AE2FF
:104D100070E0CE0101960E94DC228091E8008B7742
:104D20008093E80057C0C096E7CF60912902709148
:104D30002A02AE014F5F5F4F0E940822BC01892BFF
:104D400009F448C09091E800977F9093E80089812A
:104D50009A810E943A23E1CF8038E1F58091E80002
:104D6000877F8093E800809120028093F10045CFF7
:104D7000811130C090912702923060F58091E80057
:104D8000877F8093E800909320020E94CD2380913A
:104D90002002882311F084E005C08091E30087FDA4
:104DA000FACF81E0809324020E94082113C08091F1
:104DB0002702813079F481E0933009F080E080931C
:104DC00022021092E9008091E800877F8093E8003A
:104DD0000E94CD238091E80083FF0AC08091E80003
:104DE000877F8093E8008091EB0080628093EB00E6
:104DF000AA960FB6F894DEBF0FBECDBFDF91CF915C
:104E00001F9108950895CF93809124028823A1F0E3
:104E1000C091E900CF709091EC00892F817090FDD6
:104E200080E8C82B1092E9008091E80083FD0E9481
:104E3000B025CF70C093E900CF910895AA1BBB1B8A
:104E400051E107C0AA1FBB1FA617B70710F0A61B8A
:104E5000B70B881F991F5A95A9F780959095BC01AB
:104E6000CD01089597FB072E16F4009407D077FD27
:104E700009D00E941E2707FC05D03EF4909581952D
:104E80009F4F0895709561957F4F0895EE0FFF1F16
:104E90000590F491E02D0994F999FECF92BD81BD62
:104EA000F89A992780B50895A6E1B0E044E050E073
:104EB0000C948627A8E1B0E042E050E00C948627ED
:104EC000262FF999FECF92BD81BDF89A019700B4C3
:104ED000021639F01FBA20BD0FB6F894FA9AF99A63
:104EE0000FBE08950396272F0E9461270E94602716
:104EF000252F0E946127242F0C9461270196272FCC
:104F00000E9461270C946027DC01CB01FC01F99918
:104F1000FECF06C0F2BDE1BDF89A319600B40D9205
:104F200041505040B8F70895F894FFCF0A0B110B89
:104F3000180B1D0B220B270B2C0B310B360B3B0BCD
:104F4000400B450B0C0B0C0B0C0B0C0B0C0B0C0B3C
:104F50000C0B0C0B72117211CA11CA111C123812EF
:104F60009F119F117A1206131513151371139F11B8
:104F70009F117A13DA13DA13E313E313E513E31340
:104F8000E313E313DA13DA13EA13E313E313EA1375
:104F9000D9250126EA260126EA2634265526EA26C0
:044FA000AC26B8265D
:104FA400013E01003F01043F010A0ABD0128081423
:104FB4000A321E4720C02095208F207D2001F6F75D
:104FC4003133323697C63435000000000001010247
:084FD4000304050607080900AB
:00000001FF
